:100000000C94DB060C9403070C9403070C94030771
:100010000C9403070C9403070C9403070C94030738
:100020000C9403070C9403070C941C120C948B1271
:100030000C9403070C9403070C9403070C94030718
:100040000C9403070C94CE150C9403070C9403072F
:100050000C9403070C9403070C9403070C94BD1431
:100060000C9403070C9403070C9403070C940307E8
:100070000C9403070C9403070C9403070C940307D8
:100080000C9407150C9403070C9403070C940307B6
:100090000C9403070C9403070C9403070C940307B8
:1000A0000C9403070C9403070C9403070000000052
:1000B00000000000000000000000000E0000000032
:1000C00000000000000000000000001E007C000096
:1000D00000000000000000000000003E01FE0000E3
:1000E0000000000000000000001F00FF03FC800073
:1000F000000000000000000001FFC3FE07F9C0007F
:10010000000000000000000007FEA7FA07E3C0009F
:1001100000000000000000003FFFFFF407CFE000F8
:1001200000000000000000007FFFFFC4079FE00008
:100130000000000000000001FFFFFF50073FE1400A
:10014000000000000000000FFFFFF2B0067FE0702B
:10015000000000000010007FFFFFF4E0025EC01806
:1001600000080000003C00FFFFFFFF80000380004C
:100170000036C000002601FFFFFFF00000C70002AC
:1001800000FD400000271FFFFFFFF000007C00067D
:10019000030160000037FFFFFFFFF00000000003D5
:1001A0000400100003FFFFFFFFFFF000000000014C
:1001B0001C00180007FFBFFFFD7FF00000000001DA
:1001C000280008000CFFEFFFFEBFF0000000000059
:1001D000A00000001DFFBFFFFE5FE0000000000068
:1001E000800000007E7FCFFFFFFBE00000000000EA
:1001F00000000200FE7F67FFF0FDE000000000004D
:10020000000000001E7F8FFF8007E000000000005C
:10021000000001003FF81FFE0007E00000000000A2
:1002200000000000FFE3FFF80007C000000000002E
:10023000000000007FDFF3E0000DC00000000000C0
:10024000000000000017F780000D00000000000013
:10025000000000000017FC0000000000000000008B
:10026000000000000000000000000000000000008E
:10027000000000000000000000000000000000007E
:1002800000000000000000000000000007FFE01F69
:10029000F0000000000000000000003C1FEBF07FB9
:1002A000FC3FC0F9F83E07FF01FFF83C3FEBF0FFD1
:1002B000FE3FC0FDFC7E7FFFC3FFFE3C3FBEF9FF5B
:1002C000FFBFC0FDFF7E7FFFF3FFFE3C3FA2F9FFB3
:1002D000FF9FC0FDFFFF7FFFF3FFFE3C3FE3F9F808
:1002E000C7DFF1FCFFFF7FFFF3FFFE3C3FE3F9F8C0
:1002F000C7CFFFFEFFFF7FFFF3FFFE3C3FFFF9FF8D
:10030000FFCFFFFEFFFF7FFFF3FFFE3C3FFFF9CC77
:100310001CE7FFFEFFFF3FF803FFC03C3FFFF3C8B1
:1003200004E7FFFEFFFF3FF003FFC03C3FEBF9F89F
:1003300007E7FFFEFFFF3FF003FFFE3C3FAAFCF88C
:1003400007E7FFFEFFFFBFF003FFFE3C3FBEFEF8E6
:1003500007E7FFFEFFFFBFFC03FFFE3C3FE3FEFCA1
:1003600007E7FFFEFDFFBFFFFBFFC03C3FE3FE7E54
:100370001FE7FFFEFC7FBFFFFBFFC0003FE3FE7FE8
:10038000FFCFFFFCFC7FBFFFF3FFFE3C3FFFFE7F84
:10039000FFC7FFF9FE3F9FFFC3FFFE3C3FFFF03F5B
:1003A000FFC3FFF07C0F01FC00FFFE3C00000000DB
:1003B000000000000000000000000000000000003D
:1003C000000000000000000000000000000000002D
:1003D000000000000000000000000000000000001D
:1003E000000000000000000000000000000000000D
:1003F00000000000000000000000000000000000FD
:1004000000000000000000000000000000000000EC
:1004100000000000000000000000000000000000DC
:1004200000000000000000000000000000000000CC
:1004300000000000000000000000000000000000BC
:1004400000000000000000000000000000000000AC
:10045000000000000000000000000000000000009C
:10046000000000000000000000000000000000008C
:10047000000000000000000000000000000000007C
:10048000000000000000000000000000000000006C
:10049000000000000000000000000000000000005C
:1004A000000000000000000000000000A140EDC0BE
:1004B000EDC0EDC0FFC0FFC0FFC0FFC0FFC01E0009
:1004C00061809E403F006D806D80BF40BF40BF4057
:1004D00092409E400000000000000000000000006C
:1004E0000000000000000000000000009E4092405C
:1004F000BF40BF40BF406D806D803F009E40618027
:100500001E00FFC0FFC0FFC0FFC0FFC0EDC0EDC0B8
:10051000EDC0A1400000000000000000000000004D
:10052000000000000000000000000000A140E1C049
:10053000EDC0FFC0FFC0FFC0FFC0FFC0BF401E0036
:100540006D8040803F007F805E805E80BF40B34012
:100550009E408040000000000000000000000000FD
:1005600000000000000000000000000080409E40ED
:10057000B340BF405E805E807F803F0040806D80E2
:100580001E00BF40FFC0FFC0FFC0FFC0FFC0EDC0E6
:10059000E1C0A140000000000000000000000000D9
:1005A000000000000000000000000000A140E1C0C9
:1005B000EDC0EDC0FFC0FFC0FFC0FFC0FFC0BF4027
:1005C00040805E80FFC0EDC0FFC0F3C0A140CCC042
:1005D000E1C0A14000000000000000000000000099
:1005E000000000000000000000000000A140E1C089
:1005F000CCC0A140F3C0FFC0EDC0FFC05E80408012
:10060000BF40FFC0FFC0FFC0FFC0FFC0EDC0EDC0D6
:10061000E1C0A14000000000000000000000000058
:1006200000000000000000000000000000000000CA
:10063000003E5B4F5B3E3E6B4F6B3E1C3E7C3E1C68
:10064000183C7E3C181C577D571C1C5E7F5E1C00AE
:10065000183C1800FFE7C3E7FF0018241800FFE765
:10066000DBE7FF30483A060E2629792926407F0528
:100670000507407F05253F5A3CE73C5A7F3E1C1C3E
:1006800008081C1C3E7F14227F22145F5F005F5FFE
:1006900006097F017F006689956A606060606094EA
:1006A000A2FFA29408047E040810207E20100808EF
:1006B0002A1C08081C2A08081E101010100C1E0CFA
:1006C0001E0C30383E3830060E3E0E06000000008C
:1006D0000000005F00000007000700147F147F1473
:1006E000242A7F2A122313086462364956205000B8
:1006F00008070300001C2241000041221C002A1CA4
:100700007F1C2A08083E080800807030000808088E
:100710000808000060600020100804023E514945AE
:100720003E00427F400072494949462141494D33CC
:100730001814127F1027454545393C4A4949314133
:10074000211109073649494936464949291E000001
:100750001400000040340000000814224114141456
:100760001414004122140802015909063E415D5942
:100770004E7C1211127C7F494949363E414141224B
:100780007F4141413E7F494949417F090909013E75
:10079000414151737F0808087F00417F410020409C
:1007A000413F017F081422417F404040407F021CAE
:1007B000027F7F0408107F3E4141413E7F090909C5
:1007C000063E4151215E7F09192946264949493291
:1007D00003017F01033F4040403F1F2040201F3F57
:1007E0004038403F631408146303047804036159DC
:1007F000494D43007F41414102040810200041411E
:10080000417F0402010204404040404000030708C9
:100810000020545478407F284444383844444428C5
:10082000384444287F385454541800087E0902186C
:10083000A4A49C787F0804047800447D40002040F4
:10084000403D007F1028440000417F40007C047838
:1008500004787C080404783844444438FC18242480
:100860001818242418FC7C08040408485454542400
:1008700004043F44243C4040207C1C2040201C3C7D
:100880004030403C44281028444C9090907C446474
:10089000544C440008364100000077000000413607
:1008A000080002010204023C2623263C1EA1A1618D
:1008B000123A4040207A38545455592155557941BF
:1008C0002154547841215554784020545579400C96
:1008D0001E52721239555555593954545459395577
:1008E0005454580000457C410002457D42000145BA
:1008F0007C40F0292429F0F0282528F07C54554527
:10090000002054547C547C0A097F493249494932B9
:100910003248484832324A4848303A4141217A3ACE
:1009200042402078009DA0A07D39444444393D4098
:1009300040403D3C24FF2424487E4943662B2FFC45
:100940002F2BFF0929F620C0887E090320545479F3
:10095000410000447D413048484A32384040227AC4
:10096000007A0A0A727D0D19317D2629292F282641
:100970002929292630484D40203808080808080849
:100980000808382F10C8ACBA2F102834FA00007BA2
:10099000000008142A142222142A140895002200A8
:1009A00095AA005500AAAA55AA55AA000000FF0062
:1009B000101010FF00141414FF001010FF00FF109F
:1009C00010F010F0141414FC001414F700FF0000D1
:1009D000FF00FF1414F404FC141417101F10101F50
:1009E000101F1414141F00101010F0000000001F3E
:1009F000101010101F10101010F010000000FF1049
:100A00001010101010101010FF10000000FF140044
:100A100000FF00FF00001F10170000FC04F4141476
:100A20001710171414F404F40000FF00F714141442
:100A300014141414F700F7141414171410101F10C2
:100A40001F141414F4141010F010F000001F101FE5
:100A50000000001F14000000FC140000F010F01053
:100A600010FF10FF141414FF141010101F000000CA
:100A700000F010FFFFFFFFFFF0F0F0F0F0FFFFFFCE
:100A80000000000000FFFF0F0F0F0F0F3844443825
:100A9000447C2A2A3E147E02020606027E027E0260
:100AA00063554941633844443C04407E201E20067F
:100AB000027E020299A5E7A5991C2A492A1C4C72BC
:100AC00001724C304A4D4D303048784830BC625A43
:100AD000463D3E494949007E0101017E2A2A2A2AD3
:100AE0002A44445F444440514A444040444A5140AF
:100AF0000000FF0103E080FF000008086B6B083670
:100B000012362436060F090F0600001818000000E0
:100B10001010003040FF0101001F01011E00191DCF
:100B20001712003C3C3C3C0000000000060115018F
:100B3000260137014A015D01720188019F01B80158
:100B4000D201EE010B022A024B026E029302BA029C
:100B5000E40210033F037003A403DC0317045504ED
:100B60009704DD0427057505C80520067D06E00607
:100B70004907B8072D08A9082D09B9094D0AEA0A3D
:100B8000900B400CFA0CC00D910E6F0F5A105311C0
:100B90005B1272139A14D41520178018F519801B54
:100BA000231DDE1EB420A622B524E4263429A72B5B
:100BB000402E0031EA330037453ABC3D68414C4590
:100BC0006B49C84D68524F57805C00621011121378
:100BD000151617181A1C1D1F21232527292C2E3105
:100BE00034373A3E4145494E52575C62686E757BD8
:100BF000838B939CA5AFB9C4D0DCE9F70000000259
:100C000000090F0000030401000C000000000000B8
:100C10000000000000000000000000F0F89C8E873B
:100C200083878E9CF8F00000FEFF03030303030795
:100C30000EFCF80000FEFF0303030303070EFCF89D
:100C40000000FFFF00000000000000FFFF0000FEAA
:100C5000FF8383838383C7EE7C380000F8FC0E0794
:100C6000030303070EFCF800003F7FE0C08080C054
:100C7000E07F3FFFFF01010101010101FFFF0000D3
:100C8000FFFF0C0C0C0C1C3E77E3C100007FFFC083
:100C9000C0C0C0C0E0703F1F00001F3F70E0C0C078
:100CA000C0E0703F1F00007FFFC1C1C1C1C1E37739
:100CB0003E1C00001F3F70E0C0C0C0E0703F1F003E
:100CC0000000000001FFFF01000000000000002400
:100CD0000027002A002D003000D5F08D14A1C88116
:100CE000CFD9F1AF2000140213021202150207023D
:100CF000080204010C01060100080B0002020201B7
:100D00000009040000010202000005240010010592
:100D100024010101042402060524060001070581BF
:100D20000310004009040100020A00000007050248
:100D3000024000000705830240000004030904127A
:100D4000010002EF0201404123368000010102034D
:100D50000141726475696E6F204C4C4300417264AE
:100D600075626F7900040802011040804010204035
:100D70008040800802040180402010020110801091
:100D80002040402000000000250028002B002E00FD
:100D900031000404040404030405020202020403F3
:100DA0000202020206060606060604040202020405
:100DB00004030100391611241FBECFEFDAE0DEBFB5
:100DC000CDBF11E0A0E0B1E0E4E0FDE302C005909A
:100DD0000D92A83CB107D9F726E0A8ECB1E001C01C
:100DE0001D92AA37B207E1F716E0CBEDD6E004C0BA
:100DF0002197FE010E94751ECA3DD107C9F70E94C6
:100E00006C160C94801E0C94000084E792E020E0A5
:100E1000B22FB111BFEFFC010024B193B193B19394
:100E2000B1930394D1F70895FC01809108028823BF
:100E300011F13FB7F89482E08093E9002091F2002D
:100E4000822F90E01816190614F481E090E08823B0
:100E500039F0289844E6409307024091F10040831E
:100E6000222339F02091F200211103C02BE62093B8
:100E7000E8003FBF08958FEF9FEF08952FB7F894D4
:100E800083E08093E9009091E800892F807295FFBC
:100E900004C09091F20080E4891B2FBF08958091D7
:100EA000FF0181110DC082E08093FB0184E08093FB
:100EB000FC011092FE011092FD0181E08093FF0180
:100EC0008BEF91E00895CF93DF931F92CDB7DEB7FC
:100ED0006983DC01ED91FC910280F381E02D41E01A
:100EE00050E0BE016F5F7F4F09950F90DF91CF916A
:100EF000089583E08093E9008091F200882319F03F
:100F00008AE38093E80008950E943E0790E00895E8
:100F1000CF93DF931F92CDB7DEB7FC018485958513
:100F200097FD08C02FEF3FEF358724870F90DF91A3
:100F3000CF910895CE0101960E941407019719F4EC
:100F4000898190E0F3CF8FEF9FEFF0CF0F931F9346
:100F5000CF93DF931F92CDB7DEB78C01FC01848560
:100F6000958597FF0BC0CE0101960E94140701974B
:100F700071F4898190E0F80195878487F801848570
:100F800095850F90DF91CF911F910F9108958FEF6D
:100F90009FEFF1CFFC018485958597FD0BC09FB72E
:100FA000F89482E08093E9008091F2009FBF90E086
:100FB000019608959FB7F89482E08093E9008091AC
:100FC000F2009FBF90E008954091F5015091F60125
:100FD0002091F3013091F40142175307B4F490913A
:100FE000E8009570E1F39091E80092FD19C08093BC
:100FF000F1008091F5019091F60101968F73992788
:10100000892B19F48EEF8093E8008091F50190917F
:10101000F60101969093F6018093F50181E0089521
:1010200080E00895EF92FF920F931F93CF93DF9389
:10103000F82E192FE62E042F81E0860F880F0E94CC
:10104000E40783E00E94E407CF2DD12FEC0EFD2EA4
:10105000F11CCE15DF05B9F007FF13C0FE01849126
:101060000E94E407182F80E00E94E4078123219664
:101070008111EFCFDF91CF911F910F91FF90EF90F2
:1010800008958881EDCF81E0F5CFDF92EF92FF9256
:101090000F931F93CF93DF93D82E8A01EB017B012F
:1010A000E40EF51ECE15DF0559F0D7FE12C0FE0185
:1010B00084910E94E40721968111F4CF0FEF1FEF76
:1010C000C801DF91CF911F910F91FF90EF90DF90BA
:1010D00008958881EECF0F931F93CF93DF931F92D4
:1010E000CDB7DEB782E0898342E450E069EF7CE06F
:1010F00080E80E9445080E944F07DC0112960D917E
:101100001C910115110589F0D801ED91FC91028027
:10111000F381E02DBE016F5F7F4FC801099597FDF8
:1011200004C0F80100851185ECCF89810F90DF9113
:10113000CF911F910F910895615030F02091F100EF
:10114000FC0120830196F8CF289884E6809307025B
:101150000895AF92BF92CF92DF92EF92FF920F93DA
:101160001F93CF93DF936C017B018B01040F151F3D
:10117000EB015E01AE18BF08C017D10759F06991A5
:10118000D601ED91FC910190F081E02DC601099509
:10119000892B79F7C501DF91CF911F910F91FF90B6
:1011A000EF90DF90CF90BF90AF900895282F30E060
:1011B000F901E450F44F9491F901EB59F24F849105
:1011C0002E56324FF9012491222309F430C099237D
:1011D000E9F091509F30D0F4E92FF0E0EE50F74F56
:1011E0000C94751E20092409010918091C09060917
:1011F0000609060927092D09310935093B090609A0
:101200003F09909180009F7790938000E22FF0E05B
:10121000EE0FFF1FEC57F24FA591B4919FB7F894D2
:10122000EC91611132C080958E238C939FBF0895FD
:10123000909180009F7DE8CF90918000977FE4CFD0
:1012400094B59F7794BDE2CF94B59F7DFBCF9091ED
:1012500090009F7790939000D9CF909190009F7DC0
:10126000F9CF90919000977FF5CF9091C0009F7734
:101270009093C000CBCF9091C0009F7DF9CF90910B
:10128000C200977F9093C200C1CF8E2BCECFCF9359
:10129000DF9390E0FC01EB59F24F24918E56924F70
:1012A000FC0184918823C9F090E0880F991FFC010C
:1012B000E553F34FA591B491FC01EC57F24FC59162
:1012C000D49161110DC09FB7F8948C912095822321
:1012D0008C938881282328839FBFDF91CF91089525
:1012E000623051F49FB7F8943C91822F809583230C
:1012F0008C93E8812E2BEFCF8FB7F894EC912E2BA7
:101300002C938FBFEACF1F93CF93DF93182FEB015E
:1013100061E00E944709209739F460E0812FDF9156
:10132000CF911F910C94D608CF3FD10511F461E005
:10133000F5CFE12FF0E0E450F44FE491E150EF30CD
:1013400008F07FC0F0E0E955F64F0C94751EB60921
:10135000BE09C309CD09D709210A210A210AE109D9
:10136000EB09F509FF090C0A210A140A84B5806803
:1013700084BDC7BDDF91CF911F91089584B5806270
:1013800084BDC8BDF7CF80918000806880938000C5
:10139000D0938900C0938800EDCF80918000806257
:1013A00080938000D0938B00C0938A00E3CF80911C
:1013B0008000886080938000D0938D00C0938C0063
:1013C000D9CF80919000806880939000D09399004D
:1013D000C0939800CFCF809190008062809390005E
:1013E000D0939B00C0939A00C5CF809190008860F5
:1013F00080939000D0939D00C0939C00BBCF8091C0
:10140000C00080688093C0008091C0008F7B809373
:10141000C000C093CF00AECF8091C00080628093A7
:10142000C000C093D000A6CF8091C2008860809396
:10143000C2008091C2008B7F8093C200C093D20013
:1014400099CFC038D1050CF072CF67CF3FB7F89471
:101450008091D7019091D801A091D901B091DA0182
:1014600026B5A89B05C02F3F19F00196A11DB11DFF
:101470003FBFBA2FA92F982F8827BC01CD01620F3B
:10148000711D811D911D42E0660F771F881F991FF6
:101490004A95D1F708958F929F92AF92BF92CF92C3
:1014A000DF92EF92FF924B015C010E94260A6B01D2
:1014B0007C010E94260A6C197D098E099F09683EED
:1014C000734081059105A8F321E0821A9108A108D3
:1014D000B10888EEC80E83E0D81EE11CF11C81140F
:1014E0009104A104B10429F7FF90EF90DF90CF9011
:1014F000BF90AF909F908F9008958F929F92AF92E0
:10150000BF92CF92DF92EF92FF920F931F93CF93F0
:10151000DF936C017B018A0180911901882309F412
:101520005CC080910802882309F457C08091FA01B9
:1015300080FF05C08091E00082608093E000E801B8
:10154000B12C8AEFA82E93E0892E2AE3922E2097C1
:1015500011F4BB20D9F10E943E0781110AC0AA9460
:10156000AA20D9F161E070E080E090E00E944B0A8F
:10157000EECF8C171D0611F00CF08C2F9FB7F8944E
:101580008092E9002091E80025FD02C09FBFDFCFD7
:10159000282F30E0C21BD30BF701815020F041917E
:1015A0004093F100FACFE20EF31EBB2021F090929F
:1015B000E800B12CEBCF8091E80085FDE7CF909259
:1015C000E800BB24B394209709F3F3CF5D9884E639
:1015D0008093F901101611063CF081E090E0F601CD
:1015E0009383828310E000E0C801DF91CF911F91C7
:1015F0000F91FF90EF90DF90CF90BF90AF909F90B2
:101600008F9008954FB18CB123B190E08095909563
:1016100033E0959587953A95E1F7887030E020950D
:10162000309535952795359527952470822B942FE5
:101630009095907F892B0895FC0121912EBD9C5F90
:1016400021910DB407FEFDCF2EBDE817F907C1F7B4
:101650000DB407FEFDCF0895CF92DF92EF92FF9277
:101660000F931F93CF93E82FF0E0EF54F24FC49104
:10167000E62FF0E0603398F5E453F44FE4910E2F39
:1016800010E0F12CE12C60E074E284EF90E0A7011F
:1016900098010E94121E215031094109510991E01F
:1016A0002115310581E0480751056CF060E970EDC6
:1016B00083E090E0A70198010E94121E2150310999
:1016C0004109510993E0C13089F0C330F9F0CF915D
:1016D0001F910F91FF90EF90DF90CF900895EE0F44
:1016E000FF1FE453F54F05911491CBCF80918100FA
:1016F000887F892B80938100309389002093880014
:1017000080916F00826080936F00E1CF80919100A3
:10171000887F892B809391003093990020939800C3
:101720001093D5010093D40181E08093D30180917F
:101730007100826080937100CACFE82FF0E0EF540F
:10174000F24FE491E13019F0E33089F0089580918F
:101750006F008D7F80936F0080910C02E0910D02ED
:10176000F0910E02908180958923808308951092D4
:10177000D30180910902E0910A02F0910B02F2CFAD
:10178000CF93DF9390910F02923081F0C82FE92F11
:10179000F0E0EF54F24FD4919F5F90930F0261E01D
:1017A0000E944709D13029F0D33049F1DF91CF9120
:1017B00008951092800010928100809181008860CD
:1017C00080938100809181008160809381008C2FC3
:1017D00090E0FC01EE56F24FE491F0E0EE0FFF1FB7
:1017E000EC57F24F2591349130930E0220930D0265
:1017F0008B59924FFC01849180930C02D7CF1092A9
:1018000090001092910080919100886080939100E7
:10181000809191008160809391008C2F90E0FC0179
:10182000EE56F24FE491F0E0EE0FFF1FEC57F24F4F
:101830002591349130930B0220930A028B59924FD9
:10184000FC0184918093090280910F02882321F08A
:101850006CE380E00E942C0B80E0DF91CF910C9430
:101860009D0BE4E6F0E08081877F8083E5E6F0E091
:101870008081877F8083089560387105E8F4403463
:101880005105D0F4342F369536953695A0E83A9F19
:10189000F0011124E60FF71FE80FF91F3489CA0180
:1018A0008770992741E050E001C0440F8A95EAF71C
:1018B000222319F0432B448B089540954323FBCFFB
:1018C0008F929F92AF92BF92CF92DF92EF92FF9250
:1018D0000F931F93CF93DF934C01EB01E22E8C010A
:1018E000040F111D6C01C016D1065CF421E0AE019D
:1018F000B60180E692E00E943C0C8FEFC81AD80A2D
:10190000F2CFEC0EFD2EF11C570181E0A81AB108B0
:101910006401C016D1065CF421E0A501B60180E6A1
:1019200092E00E943C0C8FEFC81AD80AF2CF6E01E9
:10193000570181E4E816F1041CF080E4A82EB12CD4
:10194000CA14DB045CF421E0A601B40180E692E055
:101950000E943C0C8FEFC81AD80AEACF0150110937
:10196000CA15DB054CF421E0AE01B80180E692E037
:101970000E943C0C2196F4CFDF91CF911F910F91E3
:10198000FF90EF90DF90CF90BF90AF909F908F909F
:1019900008952F923F924F925F926F927F928F9213
:1019A0009F92AF92BF92CF92DF92EF92FF920F93EE
:1019B0001F93CF93DF93803891050CF04DC06034B6
:1019C00071050CF049C04A017B013C01C22FD0E0F7
:1019D0001E0127E0220E311C93E0359427949A953E
:1019E000E1F76B01B12CA12C402E512C10E000E04E
:1019F000F80183E0F595E7958A95E1F7EA0DFB1D7F
:101A0000E80DF91DE491C8018770992720E830E0BE
:101A100002C0359527958A95E2F7C901F0E0E223E7
:101A2000F923EF2B49F021E0A601B301600F711FEC
:101A300080E692E00E943C0C0F5F1F4F0C171D07C1
:101A4000BCF2A20CB31C3FEFC31AD30AC6018E1915
:101A50009F098415950554F2DF91CF911F910F9145
:101A6000FF90EF90DF90CF90BF90AF909F908F90BE
:101A70007F906F905F904F903F902F9008952F929E
:101A80003F924F925F926F927F928F929F92AF920E
:101A9000BF92CF92DF92EF92FF920F931F93CF935B
:101AA000DF9300D000D0CDB7DEB77C018B01242FAF
:101AB00030E03C832B8381E090E05C01A21AB30A02
:101AC0001901319421943108220C331CA901460FCD
:101AD000571F21E0B70180E692E00E943C0CA8016C
:101AE0008B819C81481B590B21E0B70180E692E075
:101AF0000E943C0C6B817C816E0D7F1D21E0A80152
:101B000080E692E00E943C0CB7012B813C81621B75
:101B1000730B21E0A80180E692E00E943C0C81E07A
:101B200090E09A838983D12CC12CB7FC0BC02B8108
:101B30003C81215031093C832B8332E0230E311C40
:101B4000A20CB31C8FEFC81AD80A29813A812E5FE4
:101B50003F4F3A832983A20EB31E36016E0C7F1CC1
:101B600021E08B809C80800E911EA401B30180E651
:101B700092E00E943C0C27014C185D0821E0A40172
:101B8000B20180E692E00E943C0C21E048018B818A
:101B90009C81881A990AA401B30180E692E00E9410
:101BA0003C0C21E0A401B20180E692E00E943C0CD2
:101BB0004601800E911E21E0A4016B807C806E0C9A
:101BC0007F1CB30180E692E00E943C0C21E0A4015E
:101BD00027018B819C81481A590AB20180E692E064
:101BE0000E943C0C48018C189D0821E0A401B3011F
:101BF00080E692E00E943C0C21E0A401B20180E664
:101C000092E00E943C0C2B813C81C216D3060CF45E
:101C10008CCF0F900F900F900F90DF91CF911F916D
:101C20000F91FF90EF90DF90CF90BF90AF909F907B
:101C30008F907F906F905F904F903F902F9008957E
:101C40002F923F924F925F926F927F928F929F92CC
:101C5000AF92BF92CF92DF92EF92FF920F931F93BA
:101C6000CF93DF938C01EB017A015901A61AB70AD1
:101C7000B7FE03C0B194A194B1081701201A310A2C
:101C80002A143B0474F42C173D070CF03FC09C2F22
:101C90008D2FE701E92EF82E902F812F8901292F12
:101CA000382F2701401A510A39016C1A7D0A77FE34
:101CB00003C0719461947108620157FE03C08FEFF5
:101CC000C81AD80AD594C7948FEFC217D3070CF45B
:101CD00081E0882E880F9908E016F10614F121E0C2
:101CE000A801BE012A143B0414F0AE01B80180E63D
:101CF00092E00E943C0CC618D708D7FE04C0C80D5D
:101D0000D91DC40CD51C0F5F1F4FE6CF9E2D8F2D04
:101D10007901292F382F902F812F8E01C92FD82F8D
:101D2000C0CFDF91CF911F910F91FF90EF90DF9087
:101D3000CF90BF90AF909F908F907F906F905F906B
:101D40004F903F902F9008952F923F924F925F9225
:101D50006F927F928F929F92AF92BF92CF92DF92BB
:101D6000EF92FF920F931F93CF93DF93CDB7DEB720
:101D70002D970FB6F894DEBF0FBECDBF6A3069F560
:101D8000FC01EA5EFB4FDC01A85EBB4F2C9148E0F2
:101D9000249F9001112440815181240F351F3183EC
:101DA000208314971D921C922D960FB6F894DEBFD7
:101DB0000FBECDBFDF91CF911F910F91FF90EF909C
:101DC000DF90CF90BF90AF909F908F907F906F905B
:101DD0005F904F903F902F9008956D3029F39D872D
:101DE0008C878C5E9B4F9A838983FC0180809180D5
:101DF0002C853D85285E3B4F3C832B8330E8831642
:101E000091040CF071C0EC85FD85EA5EFB4F6080AB
:101E1000718040E4641671040CF066C0AB81BC8133
:101E20004C9045E09401449E200D311D1124121662
:101E300013060CF059C0242C312C910153E0220FD1
:101E4000331F5A95E1F7260D371D121613060CF0B5
:101E50004BC0649FB001112410E000E0FB01E45D81
:101E6000F94FFB87EA87E0E0053029F0EA85FB853A
:101E7000E00FF11FE491530198E0592E2E2F30E02E
:101E80003E832D83E170EF83F12CE12CE414D8F430
:101E9000C4018E0D9F1D99878887D12CC12CC41435
:101EA00070F4A6014A0D5B1D2F81688579858C85AC
:101EB0009D850E943C0C9FEFC91AD90AF0CFAFEF65
:101EC000EA1AFA0AE3CFED81FE81F595E7955A9477
:101ED000A20CB31C5110D2CF0F5F1F4F820C931C6A
:101EE0000630110509F0BFCFEB81FC812081422F24
:101EF00050E0A981BA818D919C91B6E02B9F800D15
:101F0000911D1124E981FA8191838083EC85FD85FF
:101F1000E75EFB4F2081222309F446CF6AEF64037A
:101F20009001659F300D112420583F4F2817390725
:101F30000CF03ACFAC85BD85ED91FC9111970190E5
:101F4000F081E02D6AE0CD012D960FB6F894DEBF4A
:101F50000FBECDBFDF91CF911F910F91FF90EF90FA
:101F6000DF90CF90BF90AF909F908F907F906F90B9
:101F70005F904F903F902F900994089590E080E0FB
:101F800008952F923F924F925F926F927F928F921D
:101F90009F92AF92BF92CF92DF92EF92FF921F93E8
:101FA000CF93DF932091EA013091EB012370332727
:101FB000232B29F4909106019F5F90930601909145
:101FC0000601953018F094E0909306018093F0019B
:101FD00080910801680F6093080162E0262E312C81
:101FE00090E080E011E078E4872E78EE972EAA2426
:101FF000A394B12CE8EE4E2EE3E05E2E612C712C02
:1020000020910101222309F45FC0880F991FFC0170
:10201000E25EFE4FC081D1811093CC01F12CE12C06
:1020200060E072E18AE790E0A7019E010E94121E23
:10203000DA01C9010197A109B109009721E0A207BE
:10204000B1059CF56C0191E080918100887F892B1E
:10205000809381009E01220F331FA4E1B0E00E9413
:10206000661EA30192010E94441ED0928900C09274
:1020700088002093C8013093C9014093CA0150934E
:10208000CB0180916F00826080936F002A94232897
:10209000D9F06EE170E080E090E00E944B0A81E0B0
:1020A00090E022242394312CABCFC501B401A701C9
:1020B0009E010E94121E69017A0181E0C81AD108AE
:1020C000E108F10893E0C0CF8091EA019091EB0123
:1020D00001969093EB018093EA01DF91CF911F91DC
:1020E000FF90EF90DF90CF90BF90AF909F908F9038
:1020F0007F906F905F904F903F902F9008958F92B8
:102100009F92AF92BF920F931F93CF93DF93CDB760
:10211000DEB7A1970FB6F894DEBF0FBECDBF19A2F0
:10212000423008F44AE08E010F5D1F4F842E912C3F
:10213000B12CA12CA50194010E94441EE62FB901E7
:10214000CA01EA3044F5E05DD801EE938D01232BFE
:10215000242B252B79F790E080E0109769F0FD01A2
:1021600001900020E9F73197AF014A1B5B0BBD01DD
:1021700080E692E00E94A908A1960FB6F894DEBF0F
:102180000FBECDBFDF91CF911F910F91BF90AF9048
:102190009F908F900895E95CD7CFFC0101900020BB
:1021A000E9F73197AF01481B590BBC0180E692E07B
:1021B0000C94A9080F93CF93DF930E94050700E4C6
:1021C00020E84CEA50E070E060E090E080E00E949F
:1021D000C90C84E090E09093750680937406C7E381
:1021E000D0E0D0937706C093760687E491E00E9412
:1021F000CD1080E290E09093750680937406D093A2
:102200007706C09376068CE491E00E94CD108EE4B0
:1022100090E09093750680937406D0937706C093F0
:10222000760684E591E00E94CD10809100012BE0BC
:10223000813071F44CE165E370E082E090E00E944F
:10224000600C84E792E0DF91CF910F910C941C0B0E
:102250004DE265E370E0823019F48EE190E0EFCF5B
:102260008CE490E0ECCF0E947B1E0F93CF93DF9322
:102270000E94050730E020E040E850E070E060E0B8
:1022800090E080E00E94200E2FE330E040E850E034
:102290006FE370E090E080E00E94200E2FE330E0DA
:1022A00040E450E070E060E080E490E00E94200EA6
:1022B00043E260E270E080E490E00E943F0D8CE138
:1022C00090E09093750680937406C3E0D0E0D093BD
:1022D0007706C09376066091EC0170E090E080E0B4
:1022E0004AE00E947F1080E690E09093750680930C
:1022F0007406D0937706C09376066091ED0170E086
:1023000090E080E04AE00E947F10809103018230DB
:1023100009F444C0833089F08130F9F460910C01F4
:1023200070E08091EE0190E020910B0104E12130FA
:1023300089F52AE04CE655E00EC060910C0170E092
:102340008091EE0190E020910B0104E12130F1F445
:102350002AE04CEE55E00E94C90C809102018230C7
:1023600009F457C0833069F18130D9F560910A01D1
:1023700070E08091050190E02091090104E1213095
:1023800009F043C02AE04CE655E029C02AE04CEAB7
:1023900055E0E1CF2AE04CE255E0DDCF60910C0141
:1023A00070E08091EE0190E020910B0104E121307A
:1023B00021F42AE04CEE54E0CECF2AE04CEA54E07F
:1023C000CACF60910A0170E08091050190E02091F0
:1023D000090104E12130A9F42AE04CEE55E00E9405
:1023E000C90C6091070170E08091080142E090E023
:1023F0000E943F0D84E792E0DF91CF910F910C9402
:102400001C0B2AE04CEA55E0EACF2AE04CE255E00A
:10241000E6CF60910A0170E08091050190E0209183
:10242000090104E1213021F42AE04CEE54E0D7CF39
:102430002AE04CEA54E0D3CF1F920F920FB60F92CE
:1024400011248F939F938091E1009091E100937FFD
:102450009093E10083FF0FC01092E90091E0909308
:10246000EB001092EC0092E39093ED0010920802C2
:1024700098E09093F00082FF22C093E09093E900EF
:102480009091F200992319F09AE39093E8009091CB
:10249000F901992341F09091F90191509093F9013C
:1024A000911101C05D9A90910702992341F090919A
:1024B0000702915090930702911101C0289A84FF5E
:1024C00018C08091E2008E7E81608093E20080914E
:1024D000E1008F7E8093E1008091FA018E7E806121
:1024E0008093FA019F918F910F900FBE0F901F90D4
:1024F000189580FFF7CF8091E2008E7E80618093F7
:10250000E2008091E1008E7E8093E1008091FA01EB
:102510008E7E8160E5CF1F920F920FB60F9211242D
:10252000CF92DF92EF92FF920F931F932F933F93DF
:102530004F935F936F937F938F939F93AF93BF93CB
:10254000EF93FF93CF93DF93CDB7DEB76C97DEBFEA
:10255000CDBF1092E9008091E80083FF25C068E0BC
:10256000CE0145960E949C0882EF8093E8008D89F9
:1025700087FF39C09091E80090FFFCCF982F9076AC
:1025800009F034C19E894F89588D2F89F88C91119B
:1025900031C0803861F58091F8018093F10010928C
:1025A000F1008EEF8093E8006C960FB6F894DEBFD2
:1025B0000FBECDBFDF91CF91FF91EF91BF91AF9152
:1025C0009F918F917F916F915F914F913F912F914B
:1025D0001F910F91FF90EF90DF90CF900F900FBE63
:1025E0000F901F9018959EEF9093E800C7CF109220
:1025F000F100D5CF913059F48111D3CF413051053D
:1026000081F68091F8018D7F8093F801CACF9330D5
:1026100049F48111C6CF4130510519F68091F80176
:102620008260F2CF953041F48091E80080FFFCCFCA
:1026300020682093E300B5CF963009F0A9C00B8D38
:102640001C8D22E01092E9001092F6011092F50123
:10265000F2122EC01092F4011092F3010E946B0846
:102660001F8299E09983FA8291E09E8390EA98878D
:102670009AEF99872091F5013091F601275F3F4F3E
:102680003C832B838D831092E9001092F601109207
:10269000F5011093F4010093F30149E050E0BE010D
:1026A0006F5F7F4F80E00E9445080E946B0879CFE2
:1026B0001093F4010093F3010E944F07DC0112967E
:1026C0000D911C910115110509F451C1D801ED912D
:1026D000FC910480F581E02DBE016B5E7F4FC80147
:1026E0000995009709F03EC1F80100851185EACFF0
:1026F000F3E0FF120EC08F89882309F440C08230B6
:1027000061F440E867E08DE59DE00E9412088111C8
:1027100048CF81E28093EB0047CF813029F440E835
:102720006BE081E59DE0F1CF833099F70E944F0780
:10273000DC011296ED90FC908E010F5F1F4F680137
:10274000E114F10479F0D701ED91FC910680F78155
:10275000E02DB801C7010995080F111DF701E084AC
:10276000F184EECFD8011C92F60101900020E9F728
:102770003197BF016C197D0940E0C601C6CF6BE3FC
:102780007DE0FB01449150E080E80E94450809CFBC
:10279000973009F4BECF983021F481E08093F100A6
:1027A00000CF993009F0FDCE837009F0B2CFE3E29B
:1027B000F1E081E031E096E32191222371F08093F2
:1027C000E9003093EB00DF0111972C912093EC008E
:1027D0009093ED008F5F873079F78EE78093EA0062
:1027E0001092EA008F8980930802DBCE8B8D9C8D3E
:1027F0001092E9001092F6011092F5019093F40105
:102800008093F301898D811192C08E899D89913ABF
:1028100049F4813209F07DCF47E050E062E171E098
:1028200080E0B3CF913209F074CF833269F48F899D
:10283000988DB0E0A0E080930E0190930F01A093DB
:102840001001B0931101ADCE803269F48091E8009F
:1028500082FFFCCF67E082E191E00E949C088BEF51
:102860008093E8009ECE823209F09BCE8F898093C0
:102870001901EEEFFFE7859194918B3F9C4D51F14B
:10288000E0E0F8E08091120190911301A091140111
:10289000B0911501803B9440A105B105F1F4809100
:1028A000190180FD1AC0EE3F8AE0F80789F587E735
:1028B00097E791838083809160008093F70188E19E
:1028C0009BE00FB6F894A895809360000FBE90939C
:1028D000600067CEEEEFFAE0D5CF80819181873737
:1028E000974709F05ECEA89580916000886180933B
:1028F00060008091F70180936000EE3F2AE0F207CC
:1029000089F08091FE0A9091FF0A9183808349CEDD
:10291000808191818737980751F29093FF0A8093C5
:10292000FE0AC5CF1092FF0A1092FE0A3ACE0E940C
:102930004F07DC0112960D911C910115110509F448
:10294000E8CED801ED91FC910190F081E02DBE011F
:102950006B5E7F4FC8010995811123CEF801008578
:102960001185EBCF181619060CF41BCED2CEF1E070
:10297000FF12BECE6FE37DE004CF1F920F920FB621
:102980000F9211242F933F938F939F93AF93BF93F5
:102990008091E3019091E401A091E501B091E601FD
:1029A0003091D60123E0230F2D3758F50196A11D54
:1029B000B11D2093D6018093E3019093E401A0938D
:1029C000E501B093E6018091D7019091D801A091E3
:1029D000D901B091DA010196A11DB11D8093D701F3
:1029E0009093D801A093D901B093DA01BF91AF9130
:1029F0009F918F913F912F910F900FBE0F901F903D
:102A0000189526E8230F0296A11DB11DD2CF1F9263
:102A10000F920FB60F9211242F933F934F935F9312
:102A20006F937F938F939F93AF93BF93EF93FF9396
:102A30008091D301882349F080910902E0910A0234
:102A4000F0910B029081892780838091DB0188239C
:102A500009F456C08091CF019091D001A091D1018D
:102A6000B091D201892B8A2B8B2B09F449C080911C
:102A7000CF019091D001A091D101B091D2010197E5
:102A8000A109B1098093CF019093D001A093D10106
:102A9000B093D201892B8A2B8B2B91F5E091CD013C
:102AA000F091CE01BF016F5F7F4F7093CE016093B5
:102AB000CD012491922F907F822F8F70903819F43E
:102AC0000E949D0BEBCF903981F43296F093CE01AA
:102AD000E093CD01FB01649190910F028917F0F60C
:102AE00067FDDCCF0E942C0BD9CF903E29F41092C9
:102AF000CE011092CD01D2CF903F99F41092DB011C
:102B0000FF91EF91BF91AF919F918F917F916F91C5
:102B10005F914F913F912F910F900FBE0F901F909B
:102B2000189597FDBBCF3296F093CE01E093CD017F
:102B3000FB016491A091D401B091D501322F262FD1
:102B40000E94661E6C507E4F8F4F9F4F28EE33E0E1
:102B500040E050E00E94441E2093CF013093D0010A
:102B60004093D1015093D2018091CF019091D00137
:102B7000A091D101B091D201892B8A2B8B2B09F026
:102B8000BFCF81E090E0A0E0B0E08093CF019093D0
:102B9000D001A093D101B093D201B2CF1F920F9276
:102BA0000FB60F9211248F939F93AF93BF93EF9320
:102BB000FF938091CC01882309F452C08091C80111
:102BC0009091C901A091CA01B091CB01892B8A2BA8
:102BD0008B2BA1F190910C02E0910D02F0910E026D
:102BE0008081892780838091C8019091C901A0913B
:102BF000CA01B091CB01181619061A061B069CF4DF
:102C00008091C8019091C901A091CA01B091CB01F6
:102C10000197A109B1098093C8019093C901A093BC
:102C2000CA01B093CB01FF91EF91BF91AF919F91FA
:102C30008F910F900FBE0F901F9018951092CC019E
:102C400080916F008D7F80936F0080910C02E091E6
:102C50000D02F0910E029081809589238083E3CF4D
:102C600090910C02E0910D02F0910E028081892773
:102C7000F5CFE0E1F2E01382128288EE93E0A0E06B
:102C8000B0E084839583A683B7838DE291E091833E
:102C900080838FEF9FEF95878487E0E6F2E01382D1
:102CA00012828FE391E0918380838CE3868380E1BD
:102CB00081871086178216861786108A118A128AD3
:102CC000109275061092740610927706109276068E
:102CD00081E0809378060895789484B5826084BDFD
:102CE00084B5816084BD85B5826085BD85B5816010
:102CF00085BD80916E00816080936E00109281008E
:102D00008091810082608093810080918100816048
:102D10008093810080918000816080938000809109
:102D200091008260809391008091910081608093F6
:102D30009100809190008160809390008091C1000B
:102D400084608093C1008091C10082608093C10043
:102D50008091C10081608093C1008091C300816037
:102D60008093C3008091C00082608093C0008091F6
:102D7000C20081608093C20080917A008460809359
:102D80007A0080917A00826080937A0080917A0044
:102D9000816080937A0080917A00806880937A00C5
:102DA000109208021092F8011092FA018091D70057
:102DB00081608093D70080EA8093D80089B58061D4
:102DC00089BD89B5826089BD09B400FEFDCF61E08F
:102DD00070E080E090E00E944B0A8091D8008F7CE8
:102DE00080618093D8008091E000807F8093E00034
:102DF0008091E1008E7E8093E1008DE08093E2007F
:102E0000559A209ACFB7F8948091DC01811127C0A0
:102E1000E3EAFDE08491E6E7FDE09491E82FF0E03D
:102E2000EE0FFF1FE553F34FA591B491EC91E92309
:102E300021F461E081E10E94D60861E081E10E9415
:102E400047098CB580618CBD8CB580648CBD61E018
:102E50008FE00E94470961E080E10E94470980916C
:102E6000DC018F5F8093DC01CFBFC6EEDCE0BE01EA
:102E7000FE0184916F5F7F4F2296FB01649188234E
:102E800019F00E944709F3CF61E086E00E94D6085E
:102E900061E070E080E090E00E944B0A60E086E034
:102EA0000E94D6086AE070E080E090E00E944B0A41
:102EB00061E086E00E94D608EEE9FDE0E491F0E0F2
:102EC000EE0FFF1FEC57F24F859194919093E20122
:102ED0008093E101E1E7FDE0E491E093E001E6E9C0
:102EE000FDE0E491F0E0EE0FFF1FEC57F24F85910B
:102EF00094919093DF018093DE01E9E6FDE0E49197
:102F0000E093DD018CB58C7F8CBD8DB581608DBD6E
:102F1000E091E101F091E20190818091E001982B34
:102F20009083A091DE01B091DF012C919091DD01A1
:102F3000909592239C9390818095892380838EE045
:102F400090E026EE3CE0019759F0F901E81BF90BFF
:102F5000E491EEBD00000DB407FEFDCF4EB5F3CFFA
:102F6000E091DE01F091DF0180819091DD01892BFC
:102F70008083E091E101F091E20190818091E00194
:102F800080958923808380916400816080936400B0
:102F90008091640082608093640080916400806806
:102FA00080936400809164008064809364008091C9
:102FB00065008160809365000E94020B87FF1AC044
:102FC00080E094E01EBC00000DB407FEFDCF2EB5DE
:102FD0000197C1F770E060E08AE00E94830970E029
:102FE00060E08BE00E94830970E060E089E00E946D
:102FF0008309FFCFCEEEDFEF08E010E0BE0169519C
:103000007F4F8AE00E9483096FEF70E08BE00E949F
:1030100083096FEF70E089E00E9483090E94050731
:103020005C2EF0EFCF170CF46EC09E01D7FF04C0EA
:10303000222733272C1B3D0B27703327CE01D7FDCA
:10304000079673E0959587957A95E1F7D7FF05C0C8
:103050000197A801421B530B9A01AC015695542FBE
:10306000442757954795405A5D4FB0E0A0E038019E
:10307000621A730A8F3F6FEF96070CF43BC07A0118
:1030800070E060E0FD01E55EF34F5F014A01F0E8AA
:103090008F0E911C8F3F980779F0F501E60FF71F0F
:1030A000E491F0E06F01022E01C0CC0C0A94EAF723
:1030B000F701D0A4CD28C0A62115310599F0F5015E
:1030C000E60FF71FE4916401C60ED71EF0E01F0162
:1030D000062C02C0359427940A94E2F7F60140A426
:1030E000242820A66F5F7F4FFFEFEF1AFF0A683595
:1030F000710581F60196A85ABF4F40585F4FA03B1B
:10310000B10509F0B7CF84E792E00E941C0B6BE198
:1031100070E080E090E00E944B0A30EF531206C04E
:103120006AEF70E080E090E00E944B0A2196C9317E
:10313000D10509F063CF6EEE72E080E090E00E946E
:103140004B0A6FEF70E08AE00E9483096FEF70E036
:103150008BE00E9483096FEF70E089E00E94830991
:1031600085E00E94C00B8DE00E94C00B1092DB0135
:1031700082E090E00E940A1E81110E94310C809131
:1031800064008E7F8093640087EC80937C0080E2F3
:1031900080937B0062E070E080E090E00E944B0A48
:1031A00080917A00806480937A0080917A0086FD15
:1031B000FCCFC0917800D0917900C095D0958EE574
:1031C00080937C0062E070E080E090E00E944B0A17
:1031D00080917A00806480937A0080917A0086FDE5
:1031E000FCCF00917800109179000E94260A00958A
:1031F00010950C9FD0010D9FB00D1C9FB00D112498
:103200009B01AC0120953095409550950E94311E50
:103210006B017C010E94260A6C0D7D1D8E1D9F1D79
:10322000611571058105910511F00E94011E8091C3
:1032300064008160809364000E94310C85E00E94EC
:10324000C00B8DE00E94C00B84E080930D010E94B2
:10325000DA1022E0422E512C612C712C89E2882E4A
:10326000912C98E2292E312C2FB7F8948091E3010C
:103270009091E401A091E501B091E6012FBF20916A
:103280007202222391F020916A02482F421B409340
:10329000730220916702309168022F5F3F4F309395
:1032A0006802209367021092720240916E02509160
:1032B0006F02609170027091710284179507A607E2
:1032C000B707ACF4481B423050F083B7817F83BF0F
:1032D00083B7816083BF889583B78E7F83BF80E08B
:1032E00090E0892B09F4C0CF0E940000B7CF209155
:1032F0006902AC01BD01420F511D611D711D40935A
:103300006E0250936F02609370027093710280930B
:103310006A0290936B02A0936C02B0936D0281E0FD
:10332000809372020E94020B86FF40C08091F201DE
:103330008F5F8093F2010E94020B8472843241F409
:1033400080910D018450833018F083E080930D014B
:103350000E94020B8076803619F484E080930D0180
:1033600080910D018550823038F40E94020B82FF5B
:1033700003C084E080930D0180910D01833009F436
:10338000D8C1D8F4813009F4B8C1823009F46AC0D8
:103390000E94020B83FF7BC380910001813009F4FE
:1033A00073C3823009F490C385E06FC30E94020B9F
:1033B00085FDBCCF1092F201BECF853009F4D2C199
:1033C000863031F780916702909168028370992767
:1033D000892B09F037C20E94020B85FF07C080913C
:1033E0000401823018F08150809304010E94020B86
:1033F00086FF07C080910401883018F48F5F8093A6
:1034000004010E94020B87FF0AC08091040199EF1A
:10341000980F923008F005C284E0809304010E9466
:10342000020B84FF08C080910401843008F0FFC1C2
:1034300084E0809304010E94020B83FF03C2E091A9
:103440000401E150E83008F0FDC1F0E0E65DF54E22
:103450000C94751E1C1C9C1CA11CA61CAD1CB21C33
:10346000B71CBD1C8091F201813019F480930D01CD
:1034700036CF0E9435110E94020B87FF08C0809151
:103480000C01815080930C0181E080930B010E941C
:10349000020B84FF08C080910C018F5F80930C01A8
:1034A0008FEF80930B0180910C01811164C081E04A
:1034B00080930C010E94020B82FF08C080910A01D8
:1034C000815080930A0181E0809309010E94020BE0
:1034D00083FF08C080910A018F5F80930A018FEFFC
:1034E0008093090180910A0181114AC081E0809393
:1034F0000A018091F101882381F10E94B21DA3018C
:1035000092010E94121E672B682B692BF1F581E056
:103510008093F0010E94B21DA30192010E94121E2D
:10352000672B682B692B99F581E08093EF018091DF
:10353000F10191E089278093F10180E480930801F3
:1035400080E280930701909306010E94351160E9A3
:1035500071E080E090E00E944B0AF090070152E099
:10356000F51619F06EE3F61214C08091EF01819503
:103570008093EF015EC08D3208F49CCF8CE298CF2F
:103580008D3208F4B6CF8CE2B2CF8FEFC1CF8FEF80
:10359000CCCFE09108018E2F90E02091EE0130E039
:1035A000BC0162507109A901465F5F4F461757077A
:1035B0000CF44CC0AC0141505109241735070CF0F4
:1035C00045C00F2D10E0680182E0C81AD108C091F3
:1035D0000C01D0E05E0194E1A90EB11CAC14BD0455
:1035E0005CF0C8010197C817D90734F462E08091F4
:1035F00006010E94C10F0AC0CE01429680179107B2
:103600002CF0C80102968C179D0784F7CC16DD06B6
:1036100009F4ABCFCA14DB0409F4A7CFC8010296A2
:10362000C817D90709F4A1CF62960C171D0709F432
:103630009CCF809108019091F001890F809308013F
:103640008091EF01F80EF092070149CE209105011B
:1036500030E0A901485F5F4F481759075CF10296B7
:10366000821793073CF10F2D10E06801E2E0CE1ABB
:10367000D108C0910A01D0E05E01F4E1AF0EB11CA7
:10368000AC14BD0454F0C8010197C817D9072CF435
:10369000809106016EEF8195ACCFCE0142968017E6
:1036A00091070CF4B3CFC80102968C179D070CF458
:1036B000ADCFEECFE23090F48091ED018F3F11F469
:1036C0001092ED018091ED018F5F8093ED0180916B
:1036D000F10191E089278093F101ABCFEF3708F436
:1036E000A8CF8091EC018F3F11F41092EC018091F2
:1036F000EC018F5F8093EC01EACF8091F201813081
:1037000019F482E080930D0182E390E090937506B6
:103710008093740640E250E050937706409376061B
:103720008CE591E00E94CD1084E792E00E941C0B92
:10373000D6CD1092EC011092ED0181E08093F10161
:1037400082E080930D011092EB011092EA01109239
:10375000EE0186E78093050184E180930C0180935C
:103760000A01BDCD0E94050780E290E090937506A6
:1037700080937406E1E0F0E0F0937706E09376063C
:1037800083E691E00E94CD1040E150E05093750631
:10379000409374068BE090E09093770680937606D2
:1037A00080E791E00E94CD10EEE2F0E0F093750624
:1037B000E093740645E150E0509377064093760617
:1037C00082E891E00E94CD1084E390E0909375062A
:1037D00080937406EFE1F0E0F0937706E0937606CD
:1037E00089E891E00E94CD1040E150E050937506C9
:1037F00040937406909277068092760680E791E077
:103800000E94CD1082E290E090937506809374063A
:10381000E7E3F0E0F0937706E09376068EE891E038
:1038200081CF8450833008F0FACD81E0F6CD873027
:1038300008F001CE87E0FDCD83E08093030181E0B5
:103840008093E9010E940507309275062092740664
:1038500041E050E0509377064093760688E991E086
:103860000E94CD10CAE0D0E0D0937506C0937406D4
:103870008BE090E0909377068093760680EA91E063
:103880000E94CD103092750620927406E5E1F0E0BA
:10389000F0937706E093760680EB91E00E94CD10DE
:1038A000D0937506C09374064FE150E050937706AD
:1038B0004093760680EA91E00E94CD101092750642
:1038C00010927406909277068092760688EB91E0CB
:1038D0000E94CD1086E290E0909375068093740666
:1038E00090927706809276068FEB91E00E94CD1041
:1038F00082E290E09093750680937406E7E3F0E02F
:10390000F0937706E09376068EE891E00E94CD1062
:10391000E0910401E150E83008F03AC0F0E0EC56E4
:10392000F34E2CE00C94751EC11CFB1C011D071DE1
:103930000B1D0F1D131D191D81E08093030182E0F3
:103940007FCF82E08093030183E07ACF83E080938E
:10395000020181E08093E80175CF81E0809302014C
:1039600082E0F8CF82E08093020183E0F3CF81E030
:10397000809301018093E70165CF1092010182E0FD
:10398000F9CF45E169E070E088E090E00E94600CCA
:103990008091E901823009F452C0833009F456C0A5
:1039A000813041F42CE045E169E070E088E090E08E
:1039B0000E94600C8091E801823009F44EC083308F
:1039C00009F452C0813041F42CE045E16DE170E032
:1039D00088E090E00E94600C8091E701813009F45A
:1039E0004AC0823009F0A0CE2CE045E167E270E0E9
:1039F00082E490E046C041E269E070E08FE190E04F
:103A0000C5CF42E269E070E083E490E0BFCF45E1DA
:103A10006DE170E0B9CF41E26DE170E0EFCF42E2DD
:103A20006DE170E0F1CF4FE067E270E084E290E09A
:103A3000ADCF45E167E270E082E490E0A7CF2CE0F3
:103A400041E269E070E08FE190E0B2CF2CE042E229
:103A500069E070E083E490E0ABCF2CE041E26DE1FF
:103A600070E08FE190E0B6CF2CE042E26DE170E0D3
:103A700083E490E0AFCF2CE04FE067E270E084E2B7
:103A800090E00E94600C50CE83E080930D01809105
:103A9000670280FD16C00E94020B85FF07C080915F
:103AA0000001823018F08150809300010E94020BC7
:103AB00086FF07C080910001833018F48F5F8093E8
:103AC00000010E94DA100BCC86E0DFCF8F929F922C
:103AD000AF92BF92CF92DF92EF92FF92CF93DF939C
:103AE000EC01688179818A819B816115710581056D
:103AF000910521F464E279ED8BE597E02DE133EF58
:103B000041E050E00E94121E49015A019B01AC01A4
:103B1000A7EAB1E40E94311E6B017C01ACEEB4EF68
:103B2000A50194010E943F1EC60ED71EE81EF91E75
:103B3000F7FE06C081E0C81AD108E10880E8F80A5B
:103B4000C882D982EA82FB82C701B6019F77DF91E2
:103B5000CF91FF90EF90DF90CF90BF90AF909F906C
:103B60008F9008958F929F92AF92BF92CF92DF92E3
:103B7000EF92FF9260911A0170911B0180911C01DC
:103B800090911D01611571058105910521F464E293
:103B900079ED8BE597E02DE133EF41E050E00E94B5
:103BA000121E49015A019B01AC01A7EAB1E40E942F
:103BB000311E6B017C01ACEEB4EFA50194010E94B3
:103BC0003F1EC60ED71EE81EF91EF7FE06C081E096
:103BD000C81AD108E10880E8F80AC0921A01D09208
:103BE0001B01E0921C01F0921D01C701B6019F77F5
:103BF000FF90EF90DF90CF90BF90AF909F908F900D
:103C0000089560931A0170931B0180931C01909397
:103C10001D010895F999FECF92BD81BDF89A9927AB
:103C200080B50895052E97FB1EF400940E94291E6E
:103C300057FD07D00E94441E07FC03D04EF40C949D
:103C4000291E50954095309521953F4F4F4F5F4F1E
:103C5000089590958095709561957F4F8F4F9F4FF8
:103C600008950E94661EA59F900DB49F900DA49F7D
:103C7000800D911D11240895B7FF0C94311E0E94F0
:103C8000311E821B930B0895A1E21A2EAA1BBB1BA7
:103C9000FD010DC0AA1FBB1FEE1FFF1FA217B30718
:103CA000E407F50720F0A21BB30BE40BF50B661F2E
:103CB000771F881F991F1A9469F7609570958095F2
:103CC00090959B01AC01BD01CF010895A29FB00169
:103CD000B39FC001A39F700D811D1124911DB29F40
:103CE000700D811D1124911D0895EE0FFF1F059089
:103CF000F491E02D099481E090E0F8940C94801EFA
:043D0000F894FFCF65
:103D04000101030301760120400114011402FFFFA5
:103D1400FFFF00E1000000000000010000000001BE
:103D2400000800C180810000000000000063077DDE
:103D34000A84077907CA078807A60700000000A4B9
:103D44000EA908BE0FBD0F504C4159004F505449A5
:103D54004F4E530043524544495453005041555328
:103D6400454400446576656C6F7065642042790053
:103D74005A61636861726961682046616C676F7536
:103D84007400417274204279004C454E5A0042201E
:103D9400746F206578697400506164646C653100E7
:103DA400446F6720436F72676920446173636800DE
:103DB400506164646C653200536F756E643A004FF1
:083DC4004E2020204F4646006E
:00000001FF
