:100000000C948F000C94B7000C94B7000C94B700BC
:100010000C94B7000C94B7000C94B7000C94B70084
:100020000C94B7000C94B7000C9490030C94FF034D
:100030000C94B7000C94B7000C94B7000C94B70064
:100040000C94B7000C9450070C94B7000C94B700B4
:100050000C94B7000C94B7000C94B7000C943106C4
:100060000C94B7000C94B7000C94B7000C94B70034
:100070000C94B7000C94B7000C94B7000C94B70024
:100080000C947B060C94B7000C94B7000C94B7004A
:100090000C94B7000C94B7000C94B7000C94B70004
:1000A0000C94B7000C94B7000C94B7000301080B34
:1000B0000002020201000904000001020200000522
:1000C0002400100105240101010424020605240670
:1000D00000010705810310004009040100020A0025
:1000E00000000705020240000007058302400000EF
:1000F0000403090412010002EF020140412336808B
:1001000000010102030141726475696E6F204C4C5D
:10011000430041726475626F7900B007E50A1124EB
:100120001FBECFEFDAE0DEBFCDBF11E0A0E0B1E04F
:10013000E0EBFAE102C005900D92A033B107D9F7C8
:1001400021E0A0E3B1E001C01D92AA3BB207E1F7B4
:1001500010E0CEE8D0E004C02197FE010E94530BCE
:10016000CD38D107C9F70E9411080C944B0D0C949F
:100170000000FC0180915F01882311F13FB7F894E2
:1001800082E08093E9002091F200822F90E018161F
:10019000190614F481E090E0882339F0289844E6A9
:1001A00040935E014091F1004083222339F0209179
:1001B000F200211103C02BE62093E8003FBF089511
:1001C0008FEF9FEF08952FB7F89483E08093E900B5
:1001D0009091E800892F807295FF04C09091F20001
:1001E00080E4891B2FBF08958091560181110DC0B5
:1001F00082E08093520184E0809353011092550174
:100200001092540181E08093560182E591E00895B7
:1002100040914C0150914D0120914A0130914B0188
:1002200042175307B4F49091E8009570E1F3909170
:10023000E80092FD19C08093F10080914C019091EB
:100240004D0101968F739927892B19F48EEF8093B6
:10025000E80080914C0190914D01019690934D01E1
:1002600080934C0181E0089580E00895EF92FF9221
:100270000F931F93CF93DF93F82E192FE62E042FA1
:1002800081E0860F880F0E94080183E00E94080128
:10029000CF2DD12FEC0EFD2EF11CCE15DF05B9F0C0
:1002A00007FF13C0FE0184910E940801182F80E00F
:1002B0000E940801812321968111EFCFDF91CF9118
:1002C0001F910F91FF90EF9008958881EDCF81E00D
:1002D000F5CFDF92EF92FF920F931F93CF93DF93AF
:1002E000D82E8A01EB017B01E40EF51ECE15DF0549
:1002F00059F0D7FE12C0FE0184910E940801219698
:100300008111F4CF0FEF1FEFC801DF91CF911F9143
:100310000F91FF90EF90DF9008958881EECF0F93BB
:100320001F93CF93DF931F92CDB7DEB782E089830F
:1003300042E450E06EEA70E080E80E9469010E94A9
:10034000F400DC0112960D911C910115110589F044
:10035000D801ED91FC910280F381E02DBE016F5F29
:100360007F4FC801099597FD04C0F80100851185EC
:10037000ECCF89810F90DF91CF911F910F9108955C
:10038000615030F02091F100FC0120830196F8CFFC
:10039000289884E680935E010895CF93DF931F929F
:1003A000CDB7DEB76983DC01ED91FC910280F3816A
:1003B000E02D41E050E0BE016F5F7F4F09950F9047
:1003C000DF91CF91089583E08093E9008091F2005E
:1003D000882319F08AE38093E80008950E94E300DF
:1003E00090E00895CF93DF931F92CDB7DEB7FC0165
:1003F0008485958597FD08C02FEF3FEF35872487CB
:100400000F90DF91CF910895CE0101960E94B9001F
:10041000019719F4898190E0F3CF8FEF9FEFF0CF30
:100420000F931F93CF93DF931F92CDB7DEB78C014D
:10043000FC018485958597FF0BC0CE0101960E9433
:10044000B900019771F4898190E0F801958784875C
:10045000F801848595850F90DF91CF911F910F91C1
:1004600008958FEF9FEFF1CFFC018485958597FD6F
:100470000BC09FB7F89482E08093E9008091F2006E
:100480009FBF90E0019608959FB7F89482E0809313
:10049000E9008091F2009FBF90E008953FB7F89483
:1004A0008091460190914701A0914801B091490186
:1004B00026B5A89B05C02F3F19F00196A11DB11DBF
:1004C0003FBFBA2FA92F982F8827BC01CD01620FFB
:1004D000711D811D911D42E0660F771F881F991FB6
:1004E0004A95D1F70895CF92DF92EF92FF920E9442
:1004F0004E026B017C010E944E026C197D098E092F
:100500009F09683E734081059105A8F3FF90EF9025
:10051000DF90CF9008958F929F92AF92BF92CF922B
:10052000DF92EF92FF920F931F93CF93DF936C01B3
:100530007B018A0180910B01882309F458C08091C6
:100540005F01882309F453C08091500180FF05C0EA
:100550008091E00082608093E000E801B12C8AEF96
:10056000A82E93E0892E2AE3922E209711F4BB2027
:10057000B9F10E94E300811106C0AA94AA20B9F142
:100580000E947302F2CF8C171D0611F00CF08C2F15
:100590009FB7F8948092E9002091E80025FD02C001
:1005A0009FBFE3CF282F30E0C21BD30BF701815050
:1005B00020F041914093F100FACFE20EF31EBB20F0
:1005C00021F09092E800B12CEBCF8091E80085FDFE
:1005D000E7CF9092E800BB24B394209709F3F3CFC0
:1005E0005D9884E680934F01101611063CF081E07F
:1005F00090E0F6019383828310E000E0C801DF9170
:10060000CF911F910F91FF90EF90DF90CF90BF900F
:10061000AF909F908F9008958F929F92AF92BF92CC
:100620000F931F93CF93DF93CDB7DEB7A1970FB68C
:10063000F894DEBF0FBECDBF19A2423008F44AE0E5
:100640008E010F5D1F4F842E912CB12CA12CA50182
:1006500094010E94220BE62FB901CA01EA3044F549
:10066000E05DD801EE938D01232B242B252B79F708
:1006700090E080E0109769F0FD0101900020E9F71B
:100680003197AF014A1B5B0BBD0180E691E00E94F0
:100690008B02A1960FB6F894DEBF0FBECDBFDF91DF
:1006A000CF911F910F91BF90AF909F908F90089521
:1006B000E95CD7CFCF92DF92EF92FF92CF93DF9397
:1006C0006C01990FEE08FF08F7FE23C06DE280E68B
:1006D00091E00E94CD01EC0166277727CB016C19D0
:1006E0007D098E099F094AE00E940C03C80FD91F9B
:1006F00042E050E06DE271E080E691E00E948B0202
:100700008C0F9D1FDF91CF91FF90EF90DF90CF90E6
:1007100008954AE0C701B6010E940C03EC01E8CF3E
:100720001F920F920FB60F9211248F939F93809177
:10073000E1009091E100937F9093E10083FF0FC06F
:100740001092E90091E09093EB001092EC0092E39C
:100750009093ED0010925F0198E09093F00082FF7B
:1007600022C093E09093E9009091F200992319F050
:100770009AE39093E80090914F01992341F0909172
:100780004F01915090934F01911101C05D9A90914A
:100790005E01992341F090915E01915090935E012A
:1007A000911101C0289A84FF18C08091E2008E7ECA
:1007B00081608093E2008091E1008F7E8093E10070
:1007C000809150018E7E8061809350019F918F9126
:1007D0000F900FBE0F901F90189580FFF7CF80915C
:1007E000E2008E7E80618093E2008091E1008E7E47
:1007F0008093E100809150018E7E8160E5CF1F9251
:100800000F920FB60F921124CF92DF92EF92FF92C8
:100810000F931F932F933F934F935F936F937F9308
:100820008F939F93AF93BF93EF93FF93CF93DF93F8
:10083000CDB7DEB76C97DEBFCDBF1092E9008091D7
:10084000E80083FF25C068E0CE0145960E94C00104
:1008500082EF8093E8008D8987FF39C09091E8008E
:1008600090FFFCCF982F907609F034C19E894F8974
:10087000588D2F89F88C911131C0803861F58091A5
:1008800051018093F1001092F1008EEF8093E80007
:100890006C960FB6F894DEBF0FBECDBFDF91CF913F
:1008A000FF91EF91BF91AF919F918F917F916F9148
:1008B0005F914F913F912F911F910F91FF90EF907A
:1008C000DF90CF900F900FBE0F901F9018959EEF66
:1008D0009093E800C7CF1092F100D5CF913059F432
:1008E0008111D3CF4130510581F6809151018D7F27
:1008F00080935101CACF933049F48111C6CF413062
:10090000510519F6809151018260F2CF953041F482
:100910008091E80080FFFCCF20682093E300B5CFF2
:10092000963009F0A9C00B8D1C8D22E01092E900D1
:1009300010924D0110924C01F2122EC010924B01F8
:1009400010924A010E948F011F8299E09983FA82D6
:1009500091E09E8390EA98879AEF998720914C01C5
:1009600030914D01275F3F4F3C832B838D83109245
:10097000E90010924D0110924C0110934B0100932D
:100980004A0149E050E0BE016F5F7F4F80E00E9466
:1009900069010E948F0179CF10934B0100934A01A6
:1009A0000E94F400DC0112960D911C9101151105B5
:1009B00009F451C1D801ED91FC910480F581E02D3D
:1009C000BE016B5E7F4FC8010995009709F03EC1DB
:1009D000F80100851185EACFF3E0FF120EC08F8980
:1009E000882309F440C0823061F440E867E082E186
:1009F00091E00E943601811148CF81E28093EB00A3
:100A000047CF813029F440E86BE086E091E0F1CFF8
:100A1000833099F70E94F400DC011296ED90FC906F
:100A20008E010F5F1F4F6801E114F10479F0D701C7
:100A3000ED91FC910680F781E02DB801C701099581
:100A4000080F111DF701E084F184EECFD8011C924C
:100A5000F60101900020E9F73197BF016C197D097B
:100A600040E0C601C6CF60EF70E0FB01449150E06A
:100A700080E80E94690109CF973009F4BECF983011
:100A800021F481E08093F10000CF993009F0FDCE90
:100A9000837009F0B2CFE5E1F1E081E031E096E367
:100AA0002191222371F08093E9003093EB00DF0164
:100AB00011972C912093EC009093ED008F5F87307D
:100AC00079F78EE78093EA001092EA008F8980938D
:100AD0005F01DBCE8B8D9C8D1092E90010924D0151
:100AE00010924C0190934B0180934A01898D8111A2
:100AF00092C08E899D89913A49F4813209F07DCF67
:100B000047E050E064E071E080E0B3CF913209F05B
:100B100074CF833269F48F89988DB0E0A0E0809320
:100B2000000190930101A0930201B0930301ADCEA7
:100B3000803269F48091E80082FFFCCF67E084E0B6
:100B400091E00E94C0018BEF8093E8009ECE82323C
:100B500009F09BCE8F8980930B01EEEFFFE7859123
:100B600094918B3F9C4D51F1E0E0F8E080910401BD
:100B700090910501A0910601B0910701803B94403E
:100B8000A105B105F1F480910B0180FD1AC0EE3F83
:100B90008AE0F80789F587E797E79183808380915A
:100BA000600080934E0188E19BE00FB6F894A89511
:100BB000809360000FBE9093600067CEEEEFFAE086
:100BC000D5CF808191818737974709F05ECEA89570
:100BD0008091600088618093600080914E018093D5
:100BE0006000EE3F2AE0F20789F08091FE0A9091C2
:100BF000FF0A9183808349CE80819181873798074E
:100C000051F29093FF0A8093FE0AC5CF1092FF0A1B
:100C10001092FE0A3ACE0E94F400DC0112960D9169
:100C20001C910115110509F4E8CED801ED91FC9154
:100C30000190F081E02DBE016B5E7F4FC8010995E8
:100C4000811123CEF80100851185EBCF1816190606
:100C50000CF41BCED2CEF1E0FF12BECE64EF70E0FA
:100C600004CF1F920F920FB60F9211242F933F9330
:100C70008F939F93AF93BF938091420190914301D3
:100C8000A0914401B09145013091410123E0230F2F
:100C90002D3758F50196A11DB11D20934101809378
:100CA000420190934301A0934401B0934501809188
:100CB000460190914701A0914801B09149010196E8
:100CC000A11DB11D8093460190934701A093480157
:100CD000B0934901BF91AF919F918F913F912F9117
:100CE0000F900FBE0F901F90189526E8230F0296C5
:100CF000A11DB11DD2CF1F920F920FB60F921124DA
:100D00002F933F934F935F936F937F938F939F9313
:100D1000AF93BF93EF93FF9380914001882339F005
:100D200080913F019091000089278093000080917D
:100D30003E01882309F466C080913A0190913B01FD
:100D4000A0913C01B0913D01892B8A2B8B2B09F49A
:100D500059C080913A0190913B01A0913C01B09122
:100D60003D010197A109B10980933A0190933B019C
:100D7000A0933C01B0933D01892B8A2B8B2B09F06A
:100D800041C0E0913801F0913901CF010196909373
:100D90003901809338012491322F307F3038E9F4C3
:100DA0002F70E22FF0E0E455FF4FE491E13039F08D
:100DB000E33039F71092400180913F0107C08091E4
:100DC0006F008D7F80936F008091350190910000BE
:100DD0008095892380930000D4CF303941F4329636
:100DE000F0933901E0933801FC018491CACF303E81
:100DF00029F41092390110923801C3CF303F99F491
:100E000010923E01FF91EF91BF91AF919F918F9111
:100E10007F916F915F914F913F912F910F900FBEF6
:100E20000F901F90189537FDACCF3296F093390193
:100E3000E0933801FC018491A0913601B091370113
:100E4000322F282F0E94440B6C507E4F8F4F9F4FA4
:100E500028EE33E040E050E00E94220B20933A015C
:100E600030933B0140933C0150933D0180913A0106
:100E700090913B01A0913C01B0913D01892B8A2BBF
:100E80008B2B09F0BFCF81E090E0A0E0B0E0809331
:100E90003A0190933B01A0933C01B0933D01B2CF46
:100EA0001F920F920FB60F9211248F939F93AF93BF
:100EB000BF9380913401882309F44CC080913001A4
:100EC00090913101A0913201B0913301892B8A2B8D
:100ED0008B2B81F1909135018091000089278093BF
:100EE00000008091300190913101A0913201B091C8
:100EF0003301181619061A061B069CF4809130015E
:100F000090913101A0913201B09133010197A10973
:100F1000B1098093300190933101A0933201B093D5
:100F20003301BF91AF919F918F910F900FBE0F90A2
:100F30001F9018951092340180916F008D7F8093DF
:100F40006F008091350190910000809589238093F6
:100F50000000E7CF90913501809100008927F7CFFD
:100F6000109263011092620188EE93E0A0E0B0E07D
:100F70008093640190936501A0936601B09367012B
:100F80008FE191E090936101809360018FEF9FEF7B
:100F900090936D0180936C011092B1011092B00199
:100FA0001092B3011092B2011092B5011092B401E7
:100FB00061E070E090E080E00E947E0C0097E1F03C
:100FC0009093B1018093B0011092B3011092B201DD
:100FD0002091B4013091B501232B11F4FC01108252
:100FE0001092B5011092B4016FE271E08091B001EE
:100FF0009091B1010C94440D8091B0019091B10198
:10100000009711F00E94F50B1092B1011092B001FF
:101010001092B5011092B4011092B3011092B20176
:101020000895789484B5826084BD84B5816084BD60
:1010300085B5826085BD85B5816085BD80916E0076
:10104000816080936E0010928100809181008260A7
:1010500080938100809181008160809381008091E4
:1010600080008160809380008091910082608093F5
:101070009100809191008160809391008091900017
:101080008160809390008091C10084608093C10052
:101090008091C10082608093C1008091C100816015
:1010A0008093C1008091C30081608093C3008091D0
:1010B000C00082608093C0008091C20081608093F4
:1010C000C20080917A00846080937A0080917A00D7
:1010D000826080937A0080917A00816080937A00A8
:1010E00080917A00806880937A0010925F0110925C
:1010F0005101109250018091D70081608093D700F8
:1011000080EA8093D80089B5806189BD89B5826005
:1011100089BD09B400FEFDCF0E9473028091D80002
:101120008F7C80618093D8008091E000807F8093E5
:10113000E0008091E1008E7E8093E1008DE080935D
:10114000E200559A209A8FEF9FEF90936D01809364
:101150006C0180910C0190910D010E945A038091C5
:101160000C0190910D01019690930D0180930C015B
:101170000E945A0380910C0190910D010196909369
:101180000D0180930C010E945A0380910C019091F3
:101190000D01019690930D0180930C010E945A035A
:1011A00080910C0190910D01019690930D01809317
:1011B0000C010E945A0380910C0190910D0101963F
:1011C00090930D0180930C010E945A0380910C01B1
:1011D00090910D01019690930D0180930C010E9456
:1011E0005A0380910C0190910D01019690930D018D
:1011F00080930C010E945A0380910C0190910D0183
:10120000019690930D0180930C010E945A038091E6
:101210000C0190910D01019690930D0180930C01AA
:101220000E945A0380910C0190910D0101969093B8
:101230000D0180930C010E945A0380910C01909142
:101240000D01019690930D0180930C010E945A03A9
:1012500080910C0190910D01019690930D01809366
:101260000C010E945A0380910C0190910D0101968E
:1012700090930D0180930C010E945A0380910C0100
:1012800090910D01019690930D0180930C010E94A5
:101290005A0380910C0190910D01019690930D01DC
:1012A00080930C010E945A0380910C0190910D01D2
:1012B000019690930D0180930C010E945A03809136
:1012C0000C0190910D01019690930D0180930C01FA
:1012D0000E945A0380910C0190910D010196909308
:1012E0000D0180930C010E945A0380910C01909192
:1012F0000D01019690930D0180930C010E945A03F9
:1013000080910C0190910D01019690930D018093B5
:101310000C010E945A0380910C0190910D010196DD
:1013200090930D0180930C010E945A0380910C014F
:1013300090910D01019690930D0180930C010E94F4
:101340005A0380910C0190910D01019690930D012B
:1013500080930C010E945A0380910C0190910D0121
:10136000019690930D0180930C010E945A03809185
:101370000C0190910D01019690930D0180930C0149
:101380000E945A0380910C0190910D010196909357
:101390000D0180930C010E945A0380910C019091E1
:1013A0000D01019690930D0180930C010E945A0348
:1013B00080910C0190910D01019690930D01809305
:1013C0000C010E945A0380910C0190910D0101962D
:1013D00090930D0180930C010E945A0380910C019F
:1013E00090910D01019690930D0180930C010E9444
:1013F0005A0380910C0190910D01019690930D017B
:1014000080930C010E945A0380910C0190910D0170
:10141000019690930D0180930C010E945A038091D4
:101420000C0190910D01019690930D0180930C0198
:101430000E945A0380910C0190910D0101969093A6
:101440000D0180930C010E945A0380910C01909130
:101450000D01019690930D0180930C010E945A0397
:1014600080910C0190910D01019690930D01809354
:101470000C010E945A0380910C0190910D0101967C
:1014800090930D0180930C010E945A0380910C01EE
:1014900090910D01019690930D0180930C010E9493
:1014A0005A0380910C0190910D01019690930D01CA
:1014B00080930C010E945A0380910C0190910D01C0
:1014C000019690930D0180930C010E945A03809124
:1014D0000C0190910D01019690930D0180930C01E8
:1014E0000E945A0380910C0190910D0101969093F6
:1014F0000D0180930C010E945A0380910C01909180
:101500000D01019690930D0180930C010E945A03E6
:1015100080910C0190910D01019690930D018093A3
:101520000C010E945A0380910C0190910D010196CB
:1015300090930D0180930C010E945A0380910C013D
:1015400090910D01019690930D0180930C010E94E2
:101550005A0380910C0190910D01019690930D0119
:1015600080930C010E945A0380910C0190910D010F
:10157000019690930D0180930C010E945A03809173
:101580000C0190910D01019690930D0180930C0137
:101590000E945A0380910C0190910D010196909345
:1015A0000D0180930C010E945A0380910C019091CF
:1015B0000D01019690930D0180930C01C0E0D0E0E5
:1015C0002097F1F30E940000FBCF8091B001909131
:1015D000B1010C94F50B2F923F924F925F926F9254
:1015E0007F928F929F92AF92BF92CF92DF92EF92B3
:1015F000FF920F931F93CF93DF93CDB7DEB7CA1B34
:10160000DB0B0FB6F894DEBF0FBECDBF09942A885E
:10161000398848885F846E847D848C849B84AA8406
:10162000B984C884DF80EE80FD800C811B81AA8193
:10163000B981CE0FD11D0FB6F894DEBF0FBECDBF5E
:10164000ED010895A1E21A2EAA1BBB1BFD010DC0DE
:10165000AA1FBB1FEE1FFF1FA217B307E407F50762
:1016600020F0A21BB30BE40BF50B661F771F881F3E
:10167000991F1A9469F760957095809590959B01D4
:10168000AC01BD01CF010895A29FB001B39FC0017D
:10169000A39F700D811D1124911DB29F700D811D9E
:1016A0001124911D0895EE0FFF1F0590F491E02D78
:1016B00009940F931F93CF93DF938230910510F419
:1016C00082E090E0E091B801F091B90130E020E0D3
:1016D000B0E0A0E0309799F42115310509F44AC033
:1016E000281B390B24303105D8F58A819B8161157F
:1016F000710589F1FB0193838283FE0111C0408152
:1017000051810281138148175907E0F048175907A2
:1017100099F4109761F012960C93129713961C93FC
:101720003296CF01DF91CF911F910F9108950093D1
:10173000B8011093B901F4CF2115310551F04217CA
:10174000530738F0A901DB019A01BD01DF01F8015F
:10175000C1CFEF01F9CF9093B9018093B801CDCFFC
:10176000FE01E20FF31F81939193225031093983D7
:101770002883D7CF2091B6013091B701232B41F4B4
:1017800020911001309111013093B7012093B601DF
:1017900020910E0130910F012115310541F42DB733
:1017A0003EB74091120150911301241B350BE0917B
:1017B000B601F091B701E217F307A0F42E1B3F0B1F
:1017C0002817390778F0AC014E5F5F4F24173507B3
:1017D00048F04E0F5F1F5093B7014093B6018193BD
:1017E00091939FCFF0E0E0E09CCFCF93DF93009701
:1017F000E9F0FC01329713821282A091B801B091F6
:10180000B901ED0130E020E01097A1F42081318191
:10181000820F931F2091B6013091B7012817390725
:1018200009F061C0F093B701E093B601DF91CF9169
:101830000895EA01CE17DF07E8F54A815B819E0132
:1018400041155105B1F7E901FB83EA8349915991AB
:10185000C40FD51FEC17FD0761F4808191810296BA
:10186000840F951FE90199838883828193819B83EB
:101870008A83F0E0E0E012968D919C911397009797
:10188000B9F52D913C911197CD010296820F931FCE
:101890002091B6013091B7012817390739F63097F2
:1018A00051F51092B9011092B801B093B701A0930D
:1018B000B601BCCFD383C28340815181840F951F71
:1018C000C817D90761F44E5F5F4F88819981480F2F
:1018D000591F518340838A819B8193838283211581
:1018E000310509F0B0CFF093B901E093B8019ECF74
:1018F000FD01DC01C0CF13821282D7CFB0E0A0E09F
:10190000E4E8FCE00C94ED0A8C01009751F4CB0163
:101910000E94590B8C01C801CDB7DEB7E0E10C94F1
:10192000090BFC01E60FF71F9C0122503109E21759
:10193000F30708F49DC0D901CD91DC911197C6172A
:10194000D70798F0C530D10530F3CE01049786173C
:10195000970708F3C61BD70B2297C193D1936D93BA
:101960007C93CF010E94F50BD6CF5B01AC1ABD0A68
:101970004C018C0E9D1EA091B801B091B901512C63
:10198000412CF12CE12C109731F58091B60190910A
:10199000B7018815990509F05CC04616570608F08E
:1019A00058C080910E0190910F01009741F48DB7BE
:1019B0009EB74091120150911301841B950BE817BB
:1019C000F90708F055C0F093B701E093B601F901AB
:1019D00071836083A0CF8D919C91119712966C902A
:1019E000129713967C901397A815B90559F56C01B9
:1019F00042E0C40ED11CCA14DB0420F1AC014A1928
:101A00005B09DA011296159780F062827382518326
:101A10004083D9016D937C93E114F10471F0D701F7
:101A20001396FC93EE93129776CF22968C0F9D1F00
:101A3000F90191838083F301EFCFF093B901E09333
:101A4000B80169CF4816590608F42C017D01D3016D
:101A50009ACFCB010E94590B7C01009749F0AE014F
:101A6000B8010E943B0DC8010E94F50B870153CFBE
:101A700010E000E050CFFB01DC0102C001900D92AC
:101A800041505040D8F70895FB01DC0101900D92C0
:101A90000020E1F7089510E0CEE8D0E004C0FE0198
:101AA0000E94530B2196CF38D107C9F7F894FFCF86
:101AB000FFFFFFFF00E10000000000000100000048
:101AC000BA01800000C1808100000000000000CD4C
:101AD000018B02EE01E3013402F20110020D0A0053
:00000001FF
